:100000000C942E010C944D010C944D010C944D0157
:100010000C944D010C944D010C944D010C944D0128
:100020000C944D010C944D010C944D010C944D0118
:100030000C944D010C944D010C944D010C944D0108
:100040000C944D010C944D010C944D010C944D01F8
:100050000C944D010C944D010C944D010C944D01E8
:100060000C944D010C944D010C944D010C944D01D8
:100070000C944D010C944D010C944D010C944D01C8
:100080000C944D010C944D010C944D011EFFFFFF8B
:10009000FFFFFFFFFFFFFFFFFFFFFFFFFFFFFFFF70
:1000A000FFFFFFFFFFFFFFFFFFFFFFFFFFFFFFFF60
:1000B000FFFFFFFFFFFFFFFFFF1BFFFF000102032A
:1000C000040506070809FFFFFFFFFFFFFF0A0B0CEF
:1000D0000D0E0F10111213FF14FF151617FFFFFF5F
:1000E000FF18FFFFFF19FFFFFFFFFF1AFF0A0B0CAE
:1000F0000D0E0F10111213FF14FF151617FFFF1826
:10010000FF18FFFFFFFFFFFFFFFFFFFF6E616E00A5
:10011000696E66006364696E6F70737578585B65AD
:10012000666745464700616E006E66696E69747960
:1001300000CDCCCC3D0AD7233C17B7D13877CC2B98
:10014000329595E6241FB14F0A000020410000C8F7
:100150004200401C4620BCBE4CCA1B0E5AAEC59D78
:100160007400407A10F35A00A0724E18090010A5CE
:10017000D4E80000E87648170000E40B54020000C1
:10018000CA9A3B000000E1F5050000809698000047
:100190000040420F000000A0860100000010270070
:1001A000000000E803000000006400000000000AF6
:1001B00000000000000100000000002C76D888DC60
:1001C000674F0823DFC1DFAE59E1B1B796E5E3E43D
:1001D00053C63AE651997696E8E6C28426EB898CB6
:1001E0009B62ED407C6FFCEFBC9C9F40F2BAA56F18
:1001F000A5F490055A2AF75C936B6CF9676DC11BE7
:10020000FCE0E40D47FEF520E6B500D0ED902E03AE
:1002100000943577050080841E080000204E0A00F7
:100220000000C80C333333330F986E12831141EF43
:100230008D2114893BE65516CFFEE6DB18D1844BA1
:10024000381BF77C1D901DA4BBE424203284725E11
:10025000228100C9F124ECA1E53D270011241FBE35
:10026000CFEFD0E1DEBFCDBF13E0A0E0B1E0E4E529
:10027000F7E200E00BBF02C007900D92A232B10777
:10028000D9F713E0A2E2B3E001C01D92A733B10792
:10029000E1F70E94E2020C94A8130C940000DF9393
:1002A000CF9300D000D0CDB7DEB78DE289838A83AB
:1002B0008B838C8381E060E044E09E012F5F3F4FA1
:1002C0000E9477040BC080E091E00E94F81284E065
:1002D00064E641E02CE233E00E94100580912C039B
:1002E000833489F70E943A020F900F900F900F907D
:1002F000CF91DF9108950F931F93CF93DF938C01DC
:10030000EA016F3231F44115510509F50E944F01A0
:100310001EC06B3261F06C3218F46A3229F40FC0DF
:100320006D3249F06F3299F020E030E015C09A014B
:10033000280F391F11C09C01241B350B0DC0489F8D
:100340009001499F300D589F300D112405C0C80100
:10035000BE010E9411119B01C901DF91CF911F9134
:100360000F9108950F931F93DF93CF9300D000D088
:10037000CDB7DEB79C0189519C4F875F9A4218F038
:100380000E944F016EC019821A821B821C8237FDA7
:1003900031C083E0283E380744F0C90168EE73E0BD
:1003A0000E941111605D698303C02436310564F039
:1003B000C90168EE73E00E94111164E670E00E94CA
:1003C0001111605D6A8303C02A3031055CF0C901F8
:1003D00064E670E00E9411116AE070E00E94111161
:1003E000605D6B83C9016AE070E00E941111805D5D
:1003F0008C832FC000271127021B130B0A30110515
:100400001CF4E2E0F0E01AC0C80164E670E00E946B
:1004100011116AE070E00E941111605D6B83043677
:1004200011051CF4E1E0F0E009C0C9016CE97FEFBF
:100430000E941111605D6A83E0E0F0E0C8016AE0AB
:1004400070E00E941111805D8C83EC0FFD1F8DE226
:10045000818381E060E044E09E012F5F3F4F0E9476
:1004600077040F900F900F900F90CF91DF911F9115
:100470000F9108958AE091E00E94F81210922C03E7
:1004800010922E0310922D0310922B0310922A0328
:100490001092300383E08093420110922F0380E09A
:1004A00090E00E94B201089584E064E641E02CE20D
:1004B00033E00E94100540912C034A3378F4403316
:1004C00098F44A3208F47DC04C3208F446C04D32EC
:1004D00009F443C04F3209F074C03FC04D3349F1B5
:1004E000433409F06EC06BC080914201823019F430
:1004F0000E943A020895813021F410922B03109249
:100500002A0320912A0330912B03C90163E0880F4D
:10051000991F6A95E1F7220F331F820F931F840FF3
:10052000911DC09790932B0380932A031092420150
:1005300043C040912A0350912B0380912D03909149
:100540002E03609130030E947B0190932E038093D1
:100550002D0322E0209342012FC080912F03882396
:1005600061F480912A0390912B0390932E03809342
:100570002D0381E080932F0314C0809142018823D2
:1005800081F440912A0350912B0380912D03909187
:100590002E03609130030E947B0190932E03809381
:1005A0002D0380912C038093300381E080934201DE
:1005B00080912D0390912E030E94B20108950E9414
:1005C0003A020895EF92FF920F931F93DF93CF9318
:1005D0000F92CDB7DEB70E946B0384E068EC4FEF5B
:1005E00020E001E00E94E10484E069EC4FEF20E0AC
:1005F0000BE20E94E10484E06AEC4FEF20E00DE2A0
:100600000E94E10484E06BEC4FEF20E00AE20E94DC
:10061000E10484E06CEC4FEF20E00FE20E94E10483
:1006200084E06DEC4FEF20E00DE30E94E10484E0F4
:1006300061ED4FEF20E003E40E94E10480E090E0F0
:100640000E94B2017DE1E72E71E0F72E8E010F5F6F
:100650001F4F8DB79EB70A970FB6F8949EBF0FBE77
:100660008DBFEDB7FEB73196ADB7BEB71296FC920F
:10067000EE92119780912D0390912E0393838283A4
:1006800080912A0390912B0395838483809130037A
:100690008683178280914201808711860E94E6122C
:1006A0008DB79EB70A960FB6F8949EBF0FBE8DBF4A
:1006B0000E94540280912C03898306C084E064E682
:1006C00041E098010E941005998180912C039817B0
:1006D00009F0BFCFF3CF0E94E6050E9408060E94F2
:1006E000A1050E94AD050895E82FD901883010F0CA
:1006F00081E00895683C41F4413021F5F0E0EE5D81
:10070000FC4F80818C931CC0643010F082E008950F
:1007100070E0CB01840F911D0597A4F4F0E0EE0F7B
:10072000FF1FEE0FFF1FE60FF71FED5BFE4F522F6F
:10073000D90102C081918D938A2F851B8417D0F334
:1007400080E0089583E00895EF92FF920F931F9346
:10075000DF93CF93CDB7DEB72C970FB6F894DEBFFB
:100760000FBECDBF682FDE011196E3E6F1E086E013
:1007700001900D928150E1F7862F90E0DC01AA0FE5
:10078000BB1FAA0FBB1FAD5BBE4F2C91E22FF0E049
:10079000E457FF4F449111962C911197E22FF0E00E
:1007A000E457FF4F5491FC01EE0FFF1FEE0FFF1FA8
:1007B000EB5BFE4FE081F0E0E457FF4F749113963E
:1007C0002C9130E024573F4FF90124918E5D9C4FCE
:1007D000FC019081092F0078040F892F8870880F01
:1007E000880F880F080F40E4E42EE922EE0C892FD1
:1007F00084708295807FE80EE50E30E2F32EF922B8
:10080000FF0CFF0C892F82708295880F807EF80E76
:10081000F70E192F1071110F110F110F9170929582
:10082000990F990F907C190F120F862F0E94FD05CA
:100830008DE70E94BD058DE70E94BD058DE70E94F2
:10084000BD0581E00E94BD0584E00E94BD0584E0F5
:100850000E94BD05802F0E94BD058E2D0E94BD0502
:100860008F2D0E94BD05812F0E94BD05075F0E0DD3
:100870000F0D802F810F0E94BD058E01095F1F4F54
:100880009DE0E92EF12CEC0EFD1E0E94C505F8013D
:1008900081938F01EE15FF05C1F780E00E94FD05F1
:1008A00020E030E0BE01695F7F4FAE014F5F5F4FD8
:1008B000FB01E20FF31FDA01A20FB31F90818C91AD
:1008C000981711F086E006C02F5F3F4F26303105A4
:1008D00079F780E02C960FB6F894DEBF0FBECDBF3F
:1008E000CF91DF911F910F91FF90EF9008950F939B
:1008F0001F93182F522F032F883010F081E039C03A
:10090000643010F082E035C070E0CB01840F911D9F
:10091000059714F085E02DC0822F932F9C01D901FB
:1009200080E00BC0EC91E7FD23C0F0E0E457FF4FFF
:10093000E4911196EF3FE1F08F5F841798F3E12F78
:10094000F0E0EE0FFF1FEE0FFF1FE60FF71FED5B4E
:10095000FE4F852F902F9C01D90102C08D9181936C
:100960008A2F851B8417D0F3812F0E94A40301C016
:1009700087E01F910F9108950F93382F883010F062
:1009800081E01DC0683C11F082E019C0283010F0F1
:1009900085E015C0E82FF0E0EE5DFC4F802F90E081
:1009A00002C0880F991F2A95E2F7942F982340954B
:1009B00080818423982B9083832F0E94A4030F911E
:1009C00008950F93982F883010F081E027C0862F6C
:1009D000885C813110F082E021C0283010F085E081
:1009E0001DC0892F90E0FC0134E0EE0FFF1F3A9507
:1009F000E1F7E80FF91FE60FF11DE554FF4F802FD7
:100A000090E002C0880F991F2A95E2F7942F98234F
:100A1000409580818423982B908380E00F910895E6
:100A2000FF920F931F93CF93DF93F82EE90127E0F6
:100A3000281710F481E07FC0862F885C8131C8F4CC
:100A400070E0CB01840F911D41970CF073C081E1E0
:100A5000F89ED0011124A60FB71FA554BF4F5C2FDD
:100A6000FE0102C08D9181938E2F851B8417D0F3D8
:100A70005FC0643611F082E05EC0413009F05AC0B8
:100A80008F2D0E94FD0580E09CE60197F1F78FEF26
:100A90000E94A805182F8FEF0E94A805082F80E05C
:100AA0000E94FD051017F9F000D000D000D0EDB77E
:100AB000FEB7319689E691E0ADB7BEB712969C932A
:100AC0008E93119712831382048315820E94E6127B
:100AD00086E02DB73EB72A5F3F4F0FB6F8943EBF72
:100AE0000FBE2DBF28C0112311F4188208C0113089
:100AF00011F418821DC0812F8250803110F086E0E1
:100B00001AC08F2D90E0FC0144E0EE0FFF1F4A95C4
:100B1000E1F7E80FF91FED57FE4F808180FF06C017
:100B2000E10FF11D31978081888302C01150188335
:100B300080E001C083E0DF91CF911F910F91FF9082
:100B4000089587B3807F876087BB82E58DB908955C
:100B50008FB9779BFECF8FB108951092980081E1F5
:100B600080939900EAE9F0E0808188618083EDE973
:100B7000F0E08081866080830895982F80919B00AB
:100B800085FFFCCF90939C00089580919B0087FF88
:100B9000FCCF80919C0008951F93182F8A3019F480
:100BA0008DE00E94CC055D9BFECF1CB980E090E0FB
:100BB0001F9108951F93BC015F9BFECF1CB1812F35
:100BC0000E94CC05812F90E01F9108951092900013
:100BD00081E189B98AB188618AB9E5E9F0E080816B
:100BE000866080838BE092E090933403809333039C
:100BF00090933203809331030895982F883038F40E
:100C000088B39295990F907E8F71892B88BB089538
:100C100087B3806E87BB0895A0E2B0E0E2E1F6E022
:100C20000C94381169837A838B839C832D833E8354
:100C30004F835887CE010196BE01675F7F4F0E94A8
:100C4000A308CE010596BE016F5E7F4F0E94A308E8
:100C50009985923088F089898230C8F0943019F4EF
:100C6000823051F404C0843029F4923081F489E157
:100C700092E0C6C0923049F420E09A858A899813A0
:100C800021E02A87CE010996BBC0823049F420E0DA
:100C90009A858A89981321E02A8BCE014196B0C0AB
:100CA0002D843E844F8458886D887E888F88988CE8
:100CB000EE24FF248701AA24BB24650140E050E014
:100CC00060E070E0E0E0F0E0C10181709070892B9D
:100CD000E9F0E60CF71C081D191D9A01AB012A0D5D
:100CE0003B1D4C1D5D1D80E090E0A0E0B0E0E614EF
:100CF000F7040805190520F481E090E0A0E0B0E0D9
:100D0000BA01A901480F591F6A1F7B1FAA0CBB1CFF
:100D1000CC1CDD1C97FE08C081E090E0A0E0B0E0B4
:100D2000A82AB92ACA2ADB2A3196E032F10549F00D
:100D3000660C771C881C991C56944794379427940A
:100D4000C3CFFA85EA892B893C898B859C85280F3E
:100D5000391F2E5F3F4F17C0CA0181709070892BD9
:100D600061F016950795F794E79480E090E0A0E095
:100D7000B0E8E82AF92A0A2B1B2B76956795579538
:100D800047952F5F3F4F77FDE7CF0CC0440F551FAE
:100D9000661F771F17FD4160EE0CFF1C001F111F1F
:100DA00021503040403090E0590790E0690790E4CE
:100DB000790760F32B8F3C8FDB01CA018F7790702E
:100DC000A070B07080349105A105B10561F447FDB4
:100DD0000AC0E114F1040105110529F0405C5F4FE0
:100DE0006F4F7F4F40781A8EFE1711F081E08A8F87
:100DF0004D8F5E8F6F8F78A383E0898FCE014996E8
:100E00000E94CE07A096E2E10C945411A8E0B0E055
:100E1000ECE0F7E00C9440117B018C016115710549
:100E20008105910519F482E0898360C083E089839C
:100E30008EE1C82ED12CDC82CB82ED82FE820F8324
:100E40001887C801B7010E947F07FC013197F7FF9F
:100E50003BC0222733272E1B3F0B57016801022E70
:100E600004C0D694C794B794A7940A94D2F740E0EC
:100E700050E060E070E081E090E0A0E0B0E004C00D
:100E8000880F991FAA1FBB1F2A95D2F70197A109A6
:100E9000B1098E219F21A023B1230097A105B1059F
:100EA00021F041E050E060E070E04A295B296C29C4
:100EB0007D294D835E836F8378878EE190E08E1B62
:100EC0009F0B9C838B8312C0309781F00E2E04C041
:100ED000EE0CFF1C001F111F0A94D2F7ED82FE8258
:100EE0000F831887CE1ADF0ADC82CB821A82CE01EA
:100EF00001960E94CE072896EAE00C945C11EF92CE
:100F0000FF920F931F937B018C0180E0E81680E035
:100F1000F80681E0080780E0180788F48FEFE816EC
:100F2000F1040105110531F028F088E090E0A0E01F
:100F3000B0E017C080E090E0A0E0B0E012C080E038
:100F4000E81680E0F80680E0080781E0180728F03E
:100F500088E190E0A0E0B0E004C080E190E0A0E093
:100F6000B0E020E230E040E050E0281B390B4A0BB3
:100F70005B0B04C016950795F794E7948A95D2F712
:100F8000F701EF5DFD4F8081281B310941095109AF
:100F9000C9011F910F91FF90EF900895DF92EF929A
:100FA000FF920F931F93FC01E480F5800681178167
:100FB000D1808081823048F480E090E0A0E1B0E010
:100FC000E82AF92A0A2B1B2BA5C0843009F49FC0FC
:100FD000823021F4EE24FF24870105C0E114F104DE
:100FE0000105110519F4E0E0F0E096C0628173811B
:100FF0009FEF623879070CF05BC022E83FEF261BB9
:10100000370B2A3131052CF020E030E040E050E091
:101010002AC0B801A701022E04C07695679557959E
:1010200047950A94D2F781E090E0A0E0B0E004C0D8
:10103000880F991FAA1FBB1F2A95D2F70197A109F4
:10104000B1098E219F21A023B1230097A105B105ED
:1010500021F081E090E0A0E0B0E09A01AB01282B04
:10106000392B4A2B5B2BDA01C9018F779070A07066
:10107000B07080349105A105B10539F427FF09C08E
:10108000205C3F4F4F4F5F4F04C0215C3F4F4F4F9D
:101090005F4FE0E0F0E02030A0E03A07A0E04A0730
:1010A000A0E45A0710F0E1E0F0E079018A0127C0DE
:1010B0006038710564F5FB01E158FF4FD801C701A5
:1010C0008F779070A070B07080349105A105B10544
:1010D00039F4E7FE0DC080E490E0A0E0B0E004C089
:1010E0008FE390E0A0E0B0E0E80EF91E0A1F1B1F9E
:1010F00017FF05C016950795F794E794319687E09A
:1011000016950795F794E7948A95D1F705C0EE24D4
:10111000FF248701EFEFF0E06E2F67956627679554
:10112000902F9F77D794DD24D7948E2F8695492FC3
:10113000462B582F5D29B701CA011F910F91FF90CF
:10114000EF90DF900895FC01DB0140815181228105
:10115000622F6F7770E0221F2227221F9381892F31
:10116000880F822B282F30E0991F9927991F1196FD
:101170009C93119721153105A9F54115510561057C
:10118000710511F482E037C082E89FEF13969C93BB
:101190008E9312979A01AB0167E0220F331F441F11
:1011A000551F6A95D1F783E08C930DC0220F331F32
:1011B000441F551F12968D919C911397019713967A
:1011C0009C938E931297203080E0380780E0480788
:1011D00080E4580758F314962D933D934D935C93F8
:1011E000179708952F3F310579F441155105610591
:1011F000710519F484E08C93089564FF03C081E0C5
:101200008C9312C01C9210C02F57304013963C9301
:101210002E93129783E08C9387E0440F551F661F2F
:10122000771F8A95D1F7706414964D935D936D93F3
:101230007C93179708952F923F924F925F926F92EF
:101240007F928F929F92AF92BF92CF92DF92EF9256
:10125000FF920F931F93DF93CF93CDB7DEB76197C4
:101260000FB6F894DEBF0FBECDBF3C017F876E87FF
:101270006A01FC0117821682838181FD03C06FEF32
:101280007FEF6FC39E012F5F3F4F398B288BF30198
:101290002381EE85FF8523FD859123FF8191FF87C3
:1012A000EE87882309F45AC3853251F4EE85FF8511
:1012B00023FD859123FF8191FF87EE87853229F4F5
:1012C00090E0B3010E94BA12E2CF982F10E0882478
:1012D00099241032B0F49B3269F09C3228F4903299
:1012E00051F0933271F40BC09D3239F0903349F4D0
:1012F000116028C01260146025C0186023C01061FE
:1013000021C017FD2AC0892F80538A3078F416FF38
:1013100006C0FAE09F9E902C1124980E13C03AE06C
:10132000839E802C1124880E10620CC09E3221F402
:1013300016FD14C3106406C09C3611F4106802C078
:10134000983659F4EE85FF8523FD959123FF919101
:10135000FF87EE87992309F0BCCF892F855483300E
:1013600020F4812F8061905E07C0892F85568330DD
:1013700008F09FC1812F8F7E86FD02C076E0972EF8
:101380006FE3F62EF822953619F4F0E4FF2A07C031
:10139000963619F420E8F22A02C091109A94F7FECA
:1013A0000AC03BE3391518F45CE3B52E02C0B92C32
:1013B000B39427E009C047E0491520F4BB2447E077
:1013C000942EF7CF292DBB24C60104969D878C87C8
:1013D000F6016081718182819381AE014F5F5F4F21
:1013E0000B2D0E946F116C010981202E332400FF08
:1013F00004C003FD02C01DE209C0F1FE02C01BE2F1
:1014000005C0F2FC02C010E001C010E2C1018C7006
:101410009070892BB9F1112311F483E001C084E0AD
:10142000881510F088240AC0881AF3FC07C080E2EF
:1014300090E0B3010E94BA128A94C9F7112329F0EF
:10144000812F90E0B3010E94BA1223FE03C00CE08A
:1014500011E00EC000E111E00BC0E114F10409F04D
:10146000805290E0B3010E94BA120F5F1F4F05C077
:10147000EF2CFF24F0E1EF22FF24F8018491882370
:1014800061F714C1F7FE12C0BC0C24FE04C08A81AF
:10149000813309F4BA941B141CF0BB24B3942DC0FF
:1014A000F8E0FB1550F538E0B32E27C0F6FC25C058
:1014B000892D90E08C159D054CF02CEFC2162FEF76
:1014C000D20624F030E8F32A01C09A94992049F01A
:1014D000E2E0F0E0EC0FFD1FE90DF11D80818033AB
:1014E000A1F3F7FE0AC0B92CB394892D90E0C81679
:1014F000D90614F0992401C09C18F7FC03C025E01C
:1015000030E009C01C141D041CF021E030E003C0D1
:1015100096012F5F3F4F112311F02F5F3F4F99200E
:1015200029F0892D90E00196280F391F882D90E031
:101530002817390714F0882401C0821A4F2C55242B
:10154000C20189709070892B39F008C080E290E068
:10155000B3010E94BA128A948820C1F7112329F09E
:10156000812F90E0B3010E94BA1243FE07C008C069
:1015700080E390E0B3010E94BA128A948820C1F7F8
:10158000F7FE46C08601D7FE02C000E010E07601FB
:101590000894E11CF11CE01AF10A41E050E04C0F04
:1015A0005D1FE40EF51E26014B185108892D90E0B1
:1015B000AA24BB24A81AB90A5FEF0F3F150729F424
:1015C0008EE290E0B3010E94BA12C016D10634F048
:1015D000401651061CF4F701808101C080E30150E0
:1015E00010400894E11CF11C0A151B052CF090E03A
:1015F000B3010E94BA12E0CF0C151D0539F49A818F
:10160000963318F4953311F424FE81E390E04BC037
:101610008A81813309F00F7E90E0B3010E94BA12F3
:101620009920A1F08EE290E0B3010E94BA1212E07C
:10163000E1E0F0E0EC0FFD1FE10FF11D1F5F808185
:1016400090E0B3010E94BA129A9491F744FC03C04F
:1016500085E690E002C085E490E0B3010E94BA12F2
:10166000D7FC05C0C114D10441F404FF06C0D094D6
:10167000C194D108D3948DE201C08BE290E0B30114
:101680000E94BA1280E305C08F5F26EF3FEFC20EC3
:10169000D31E3AE0C316D104BCF790E0B3010E9418
:1016A000BA12C601C096B3010E94BA12CC84DD847E
:1016B00052C1933631F0933799F0933509F059C000
:1016C00023C0F601808189835E010894A11CB11CAE
:1016D00022E030E0C20ED31E21E0E22EF12C12C037
:1016E000F601A080B18016FD03C06FEF7FEF02C04E
:1016F000692D70E022E030E0C20ED31EC5010E94C9
:101700006D127C011F7713C0F601A080B18016FD19
:1017100003C06FEF7FEF02C0692D70E022E030E080
:10172000C20ED31EC5010E9462127C01106813FF15
:1017300007C01BC080E290E0B3010E94BA128A94F5
:10174000882D90E0E816F906A8F30FC0F50117FD03
:10175000859117FF81915F0190E0B3010E94BA1259
:1017600081108A940894E108F108E114F10471F7FA
:10177000F2C0943611F0993689F517FF08C0F601CA
:10178000208131814281538184E090E00AC0F601DA
:10179000808191819C01442737FD4095542F82E040
:1017A00090E0C80ED91E9FE6F92EF12257FF09C01E
:1017B00050954095309521953F4F4F4F5F4F90E8A2
:1017C000F92ACA01B901AE014F5F5F4F2AE030E04C
:1017D0000E944713E82EE889EE1A41C0953721F49C
:1017E0001F7E2AE030E01CC0197F9F3661F09037E1
:1017F00020F4983509F0B2C00FC0903739F098370F
:1018000009F0ACC004C028E030E00AC0106114FD4B
:10181000146020E130E004C014FD166020E132E0E5
:1018200017FF08C0F601608171818281938144E0D5
:1018300050E008C0F60180819181BC0180E090E019
:1018400042E050E0C40ED51EAE014F5F5F4F0E94D4
:101850004713E82E5889E51A8FE7F82EF122F6FE95
:101860000BC08EEFF822E91438F4F4FE07C0F2FC46
:1018700005C09FEEF92202C01E2D01C0192DF4FEF5
:101880000DC0FE01EE0DF11D8081803319F4E9EEEB
:10189000FE2208C01F5FF2FE05C003C08F2D8678B0
:1018A00009F01F5F0F2DF3FC14C0F0FE0FC01815D8
:1018B00010F09E2C0BC09E2C980C911A182D06C06F
:1018C00080E290E0B3010E94BA121F5F1815C0F3C6
:1018D00004C0181510F4811A01C0882404FF0FC039
:1018E00080E390E0B3010E94BA1202FF1DC001FD27
:1018F00003C088E790E00EC088E590E00BC0802F21
:10190000867891F001FF02C08BE201C080E2F7FC13
:101910008DE290E0B3010E94BA1206C080E390E02D
:10192000B3010E94BA129A94E914C0F3EA94E1E078
:10193000F0E0EC0FFD1FEE0DF11D808190E0B30192
:101940000E94BA12EE2091F706C080E290E0B30147
:101950000E94BA128A948820C1F799CCF30166815B
:101960007781CB0161960FB6F894DEBF0FBECDBF75
:10197000CF91DF911F910F91FF90EF90DF90CF906B
:10198000BF90AF909F908F907F906F905F904F909F
:101990003F902F900895FC0120FD08C023FD05C055
:1019A00022FF02C073836283518340830895EF92C4
:1019B000FF920F931F9344FF02C033E011C046FF14
:1019C00002C034E00DC0DB01FC01AA0FBB1FEE1FFB
:1019D000FF1F1094D1F76A0F7B1F8E1F9F1F31E0EE
:1019E000660F771F881F991F3150D1F77B018C013B
:1019F000E20EF11C011D111DA8019701B701CA01DA
:101A00001F910F91FF90EF9008950F931F93CF9325
:101A1000DF938C01C8010E947812EC0197FD08C089
:101A20000E944712892BB1F7CE01B8010E942D13F5
:101A3000CE01DF91CF911F910F9108958F929F92C8
:101A4000AF92BF92DF92EF92FF920F931F93CF93CB
:101A5000DF935C01EB014A01122F0E947812AC0166
:101A60008B3219F08D3251F41068219709F46DC052
:101A7000C5010E947812AC0197FD67C06DEFD62EAC
:101A8000D1228D2D807301F54033F1F4219709F4B3
:101A900047C0C5010E947812AC0197FD41C082E0A9
:101AA000D82A483711F0483559F480E4D82A2197CC
:101AB000B9F1C5010E947812AC0199232CF430C011
:101AC000D6FC02C080E1D82AEE24FF248701242F0F
:101AD0002053283088F0D4FC09C02A3068F0D6FEA4
:101AE00005C02F7D822F8151863028F0CA01B501B3
:101AF0000E942D1312C02750C801B7014D2D0E941E
:101B0000D70C7B018C0182E0D82A219761F0C501B6
:101B10000E947812AC0197FFDACFD1FC04C015C047
:101B2000EE24FF248701D7FE08C010950095F0949D
:101B3000E094E11CF11C011D111DC401B801A701B5
:101B40002D2D0E94CB0C81E001C080E0DF91CF9170
:101B50001F910F91FF90EF90DF90BF90AF909F90FB
:101B60008F9008956F927F928F929F92AF92BF92C3
:101B7000CF92DF92EF92FF920F931F93DF93CF9359
:101B8000CDB7DEB7A0970FB6F894DEBF0FBECDBFBE
:101B90005C016B018A017901FE01319680E2DF016F
:101BA0001D928A95E9F770E030E060E040E050E097
:101BB0003F01A1E0B0E0F5018381F70183FD2591AC
:101BC00083FF21917F01222309F481C02E3519F46E
:101BD0004115510569F1872F90E08417950744F46A
:101BE0002D3551F12D3221F4332329F431E021C078
:101BF000332309F4622F322F832F8695869586959D
:101C0000F301E80FF11D832F87704D0102C0880C8E
:101C1000991C8A95E2F7208128292083361711F430
:101C200030E007C0361710F43F5FE6CF3150E4CF05
:101C300071E04F5F5F4FBFCF332319F08E81806219
:101C40008E83772359F0FE0131969E012F5D3F4F21
:101C5000808180958193E217F307D1F799249394BB
:101C60003E010894611C711CC5010E947812AC01F0
:101C700097FD25C0869586958695F301E80FF11DA1
:101C8000808190E09A012770307002C09595879509
:101C90002A95E2F780FD05C0CA01B5010E942D1307
:101CA0000EC00115110519F0D8014D938D0108944E
:101CB000C108D1089924C114D104B1F602C09920F9
:101CC00031F40115110529F0F801108202C0EE244B
:101CD000FF24C701A0960FB6F894DEBF0FBECDBF9C
:101CE000CF91DF911F910F91FF90EF90DF90CF90F8
:101CF000BF90AF909F908F907F906F9008952F929C
:101D00003F925F926F927F928F929F92AF92BF921B
:101D1000CF92DF92EF92FF920F931F93CF93DF93B7
:101D20003C017B011A010E947812EC018B3239F0E0
:101D30008D3211F0552411C0B0E85B2E01C055243E
:101D40000894E108F108E114F10409F418C1C30191
:101D50000E947812EC0197FD12C1CE010E944F1231
:101D60008936910521F08E36910599F51DC009E25D
:101D700011E01CC00894E108F108E114F10471F0CD
:101D8000C3010E947812EC0197FD08C00E944F1217
:101D9000D81661F0CE01B3010E942D1321E00C3260
:101DA000120709F0ECC008C006E211E0F8010F5F6D
:101DB0001F4FD490DD20F1F60952114029F080E048
:101DC00090E0A0E8BFE7CFC080E090E0A0ECBFE7E4
:101DD000CAC0CC24DD24882499245401AE01405388
:101DE000242F4A3038F552E0552A852D90E0AC0179
:101DF0004870507052FE06C0452B11F50894C11C66
:101E0000D11C1EC0452B19F00894C108D108C5018A
:101E1000B40140E20E94D70C4B015C0188E98816AE
:101E200089E9980689E9A80689E1B80648F094E0AE
:101E3000592A06C04E3F81F453FC0EC0E8E05E2AEA
:101E40000894E108F108E114F10431F0C3010E94A3
:101E50007812EC0197FFC2CF51FE91C0C53619F040
:101E6000C53409F046C00894E108F108E114F10412
:101E700009F485C0C3010E947812EC0197FD7FC070
:101E80008B3221F08D3269F4F0E15F2A0894E10889
:101E9000F108E114F10409F472C0C3010E94781240
:101EA000EC01CE01C0970A9708F069C000E010E08D
:101EB000B801882777FD8095982FAE014053242FD5
:101EC00040E20E94D70C8B010894E108F108E1146C
:101ED000F10439F0C3010E947812EC01C0970A970F
:101EE00038F3B80154FE03C0709561957F4FC60E5C
:101EF000D71EEF2831F0D7FD04C0CE01B3010E94F8
:101F00002D13C501B4010E940607D7FE0DC0A5E43C
:101F1000EA2EA1E0FA2ED094C194D108D394C0E265
:101F2000D0E000E010E00EC0FDE5EF2EF1E0FF2E66
:101F3000F6CFF70125913591459154910E940C06F9
:101F4000CC1ADD0ACC16DD06A0F7D695C7950F5F33
:101F50001F4F0630110529F0ECEFFFEFEE0EFF1ECC
:101F6000F1CFDC01CB0157FCB0582114310429F02A
:101F7000F10180839183A283B38381E001C080E07B
:101F8000DF91CF911F910F91FF90EF90DF90CF9055
:101F9000BF90AF909F908F907F906F905F903F9099
:101FA0002F9008955F926F927F928F929F92AF923F
:101FB000BF92CF92DF92EF92FF920F931F93CF9336
:101FC000DF934C015B013A01FC0117821682552414
:101FD00004C1812F90E00E944712892B21F0C40197
:101FE0000E94050DFAC0153249F4F501F3FC659124
:101FF000F3FE61915F01653269F415E2C4010E944C
:10200000781297FDF6C0181709F4E7C0B4010E94D2
:102010002D13F4C06A3219F0162F00E006C0F3FC4D
:102020001591F3FE11915F0101E0CC24DD240EC077
:102030000260B60180E090E040E20E94D70C6B01A4
:10204000F501F3FC1591F3FE11915F01212F20534F
:102050002A3070F301FD04C0CC24CA94DC2C04C0E7
:10206000C114D10409F4CAC0183621F01C3699F401
:10207000F5010BC0F501F3FC6591F3FE6191683643
:1020800019F05F01162F07C008600460F3FC15917A
:10209000F3FE11915F01112309F4B0C084E191E0D6
:1020A000612F70E00E945712892B09F4A7C0802F7E
:1020B00000FF03C0EE24FF2407C0F301E080F1809D
:1020C00022E030E0620E731E1E3651F4F4014681A8
:1020D000578160E070E0C701202F0E94CB0C7DC0CB
:1020E0001336B9F481FD03C011E0C12ED12CC40117
:1020F0000E94781297FD7DC0E114F10419F0F701F8
:1021000081937F010894C108D108C114D10479F7E3
:1021100062C01B3559F4C401B601A70195010E94A4
:10212000B20D5C01009709F056C050C0C4010E9476
:10213000050D97FD5EC01F36D1F1103738F4143607
:10214000A1F11936A9F11835D1F52DC0133751F089
:10215000143718F4103799F526C0153731F11837B0
:1021600071F521C0C4010E947812EC0197FD15C0E1
:102170000E944712892B29F0CE01B4010E942D1331
:102180000CC0E114F10419F0F701C1937F01089428
:10219000C108D108C114D10429F7E114F104D9F020
:1021A000F701108218C0006403C0006201C0006122
:1021B000C401B601A701202F0E941E0D05C0C40155
:1021C000B601A7010E947F0E882329F4F4018381C0
:1021D000807379F413C000FF5394F401F380F50188
:1021E000F3FC1591F3FE11915F01112309F0F1CE7B
:1021F00005C0552019F42FEF3FEF02C0252D30E028
:10220000C901DF91CF911F910F91FF90EF90DF9067
:10221000CF90BF90AF909F908F907F906F905F9086
:10222000089597FB092E07260AD077FD04D00CD01D
:1022300006D000201AF4709561957F4F0895F6F747
:10224000909581959F4F0895AA1BBB1B51E107C034
:10225000AA1FBB1FA617B70710F0A61BB70B881F36
:10226000991F5A95A9F780959095BC01CD010895C5
:102270002F923F924F925F926F927F928F929F9296
:10228000AF92BF92CF92DF92EF92FF920F931F9384
:10229000CF93DF93CDB7DEB7CA1BDB0B0FB6F89435
:1022A000DEBF0FBECDBF09942A88398848885F8475
:1022B0006E847D848C849B84AA84B984C884DF80E6
:1022C000EE80FD800C811B81AA81B981CE0FD11DCA
:1022D0000FB6F894DEBF0FBECDBFED0108952830D4
:1022E00008F027E03327DA01990F311D87FD91604F
:1022F00000966105710539F432602E5F3D9330E33D
:102300002A95E1F708959F3F30F080387105610507
:1023100009F03C5F3C5F3D93913008F08068911D6F
:10232000DF93CF931F930F93FF92EF92192F987F14
:102330009695E92F96959695E90FFF27E554FE4F60
:1023400099273327EE24FF24A701E701059008947D
:10235000079428F4360FE71EF81E491F511D660F1B
:10236000771F881F991F0694A1F70590079428F4FA
:10237000E70EF81E491F561FC11D770F881F991FB2
:10238000661F0694A1F70590079428F4F80E491FDC
:10239000561FC71FD11D880F991F661F771F0694F0
:1023A000A1F70590079420F4490F561FC71FD81FA7
:1023B000990F661F771F881F0694A9F784911095BF
:1023C000177041F0D695C79557954795F794E794C0
:1023D0001A95C1F7E1E6F1E06894159015913591F1
:1023E0006591959105907FE27395E118F10A430B91
:1023F000560BC90BD009C0F7E10CF11E431F561F45
:10240000C91FD01D7EF4703311F48A95E6CFE8948D
:10241000015030F0080F0AF40027021708F4202FAB
:102420002395022F7A3328F079E37D932A95E9F7F3
:1024300010C07D932A9589F60694979567953795F0
:1024400017951794E118F10A430B560BC90BD009E5
:1024500098F023957E9173957A3308F070E37C931E
:102460002013B8F77E9170617D9330F0839571E30E
:102470007D9370E32A95E1F71124EF90FF900F917F
:102480001F91CF91DF91992787FD90950895911124
:102490005CC1803219F089508550D0F708959111B0
:1024A000089581548A5108F4805E855A0895FC018C
:1024B0000590061621F00020D9F7C0010895319744
:1024C000CF010895FC010590615070400110D8F7CC
:1024D000809590958E0F9F1F0895FC01615070406C
:1024E00001900110D8F7809590958E0F9F1F089549
:1024F000CF93DF93EC014B8140FF1AC046FF0AC027
:102500004F7B4B838E819F8101969F838E838A812F
:10251000282F2BC042FF13C0E881F9818081282F2A
:10252000332727FD30952115310529F440624B836F
:102530002FEF3FEF1BC03196F983E88311C0EA8586
:10254000FB85CE0109959C0197FF0AC09B812F5FF7
:102550003F4F11F080E201C080E1892B8B83E8CFEF
:102560008E819F8101969F838E8330E0C901DF9128
:10257000CF9108950F931F93CF93DF938C01EB01BD
:102580008B8181FF1BC082FF0DC02E813F818C811A
:102590009D812817390764F4E881F9810193F98353
:1025A000E88306C0E885F985802F0995892B31F4E9
:1025B0008E819F8101969F838E8302C00FEF1FEF54
:1025C000C801DF91CF911F910F910895DF93CF93B1
:1025D000CDB7DEB7FE0135966191719180913303DD
:1025E00090913403AF010E941B09CF91DF910895B0
:1025F0000F931F93CF93DF938C01E0913303F091FE
:102600003403838181FF21C0C0E0D0E00DC0E091A0
:102610003303F091340320853185BF01F901099519
:10262000892B11F0CFEFDFEFF80181918F01882323
:1026300071F7E0913303F0913403208531858AE00E
:10264000BF01F9010995892B11F0CFEFDFEFCE0122
:10265000DF91CF911F910F9108959C01FB01838120
:1026600080FF11C086FD0FC09FEF2F3F390759F043
:10267000228380648F7D83838681978101979783EE
:10268000868330E002C02FEF3FEFC9010895FA01C1
:10269000AA27283051F1203181F1E8946F936E7FA1
:1026A0006E5F7F4F8F4F9F4FAF4FB1E03ED0B4E092
:1026B0003CD0670F781F891F9A1FA11D680F791FD3
:1026C0008A1F911DA11D6A0F711D811D911DA11DE4
:1026D00020D009F468943F912AE0269F11243019F4
:1026E000305D3193DEF6CF010895462F4770405D8F
:1026F0004193B3E00FD0C9F7F6CF462F4F70405D3E
:102700004A3318F0495D31FD4052419302D0A9F798
:10271000EACFB4E0A6959795879577956795BA9592
:10272000C9F700976105710508959B01AC010A2E58
:1027300006945795479537952795BA95C9F7620F2F
:10274000731F841F951FA01D08959927882708953A
:04275000F894FFCF2B
:102754004973204C6F636B656400556E4C6F636BFB
:1027640020616E642052657374617274006E756DBD
:10277400313D25642C6E756D323D25642C6F70657A
:102784007261746F723D25642C666C61673D2564CB
:102794000A000330303030303030303030303030B8
:1027A4003030303030303030303030303030300055
:1027B400000000D7D7D74F4B9A64617461203D2045
:1027C40025642C20646174615F63686B203D20255F
:1027D400640A0000464544434233363941323538B1
:1027E400303134370046454443423336394132357B
:1027F4003830313437004645444342333639413268
:102804003538303134370046454443423336394154
:102814003235383031343700464544434233363953
:10282400413235383031343700464544434233363B
:102834003941323538303134370046454443423328
:102844003639413235383031343700464544434215
:102854003336394132353830313437000000030023
:10286400000000CC05DA05000000000000000000B4
:102874000000010202030303030404040404040427
:1028840004050505050505050505050505050505F5
:1028940005060606060606060606060606060606D5
:1028A40006060606060606060606060606060606C4
:1028B40006070707070707070707070707070707A5
:1028C4000707070707070707070707070707070794
:1028D4000707070707070707070707070707070784
:1028E4000707070707070707070707070707070774
:1028F4000708080808080808080808080808080855
:102904000808080808080808080808080808080843
:102914000808080808080808080808080808080833
:102924000808080808080808080808080808080823
:102934000808080808080808080808080808080813
:102944000808080808080808080808080808080803
:1029540008080808080808080808080808080808F3
:1029640008080808080808080808080808080808E3
:02297400080059
:00000001FF
